{
  "_format": "hh-sol-artifact-1",
  "contractName": "VotingEvent",
  "sourceName": "contracts/VotingEvent.sol",
  "abi": [
    {
      "inputs": [],
      "stateMutability": "nonpayable",
      "type": "constructor"
    },
    {
      "inputs": [
        {
          "internalType": "address",
          "name": "owner",
          "type": "address"
        }
      ],
      "name": "OwnableInvalidOwner",
      "type": "error"
    },
    {
      "inputs": [
        {
          "internalType": "address",
          "name": "account",
          "type": "address"
        }
      ],
      "name": "OwnableUnauthorizedAccount",
      "type": "error"
    },
    {
      "anonymous": false,
      "inputs": [
        {
          "indexed": true,
          "internalType": "uint256",
          "name": "eventId",
          "type": "uint256"
        },
        {
          "indexed": false,
          "internalType": "string",
          "name": "name",
          "type": "string"
        },
        {
          "indexed": false,
          "internalType": "uint256",
          "name": "startTime",
          "type": "uint256"
        },
        {
          "indexed": false,
          "internalType": "uint256",
          "name": "endTime",
          "type": "uint256"
        }
      ],
      "name": "EventCreated",
      "type": "event"
    },
    {
      "anonymous": false,
      "inputs": [
        {
          "indexed": true,
          "internalType": "uint256",
          "name": "eventId",
          "type": "uint256"
        },
        {
          "indexed": false,
          "internalType": "string",
          "name": "winner",
          "type": "string"
        }
      ],
      "name": "EventFinalized",
      "type": "event"
    },
    {
      "anonymous": false,
      "inputs": [
        {
          "indexed": true,
          "internalType": "address",
          "name": "previousOwner",
          "type": "address"
        },
        {
          "indexed": true,
          "internalType": "address",
          "name": "newOwner",
          "type": "address"
        }
      ],
      "name": "OwnershipTransferred",
      "type": "event"
    },
    {
      "inputs": [
        {
          "internalType": "string",
          "name": "_name",
          "type": "string"
        },
        {
          "internalType": "string",
          "name": "_description",
          "type": "string"
        },
        {
          "internalType": "uint256",
          "name": "_startTime",
          "type": "uint256"
        },
        {
          "internalType": "uint256",
          "name": "_endTime",
          "type": "uint256"
        }
      ],
      "name": "createEvent",
      "outputs": [
        {
          "internalType": "uint256",
          "name": "",
          "type": "uint256"
        }
      ],
      "stateMutability": "nonpayable",
      "type": "function"
    },
    {
      "inputs": [],
      "name": "eventCount",
      "outputs": [
        {
          "internalType": "uint256",
          "name": "",
          "type": "uint256"
        }
      ],
      "stateMutability": "view",
      "type": "function"
    },
    {
      "inputs": [
        {
          "internalType": "uint256",
          "name": "",
          "type": "uint256"
        }
      ],
      "name": "events",
      "outputs": [
        {
          "internalType": "uint256",
          "name": "id",
          "type": "uint256"
        },
        {
          "internalType": "string",
          "name": "name",
          "type": "string"
        },
        {
          "internalType": "string",
          "name": "description",
          "type": "string"
        },
        {
          "internalType": "uint256",
          "name": "startTime",
          "type": "uint256"
        },
        {
          "internalType": "uint256",
          "name": "endTime",
          "type": "uint256"
        },
        {
          "internalType": "bool",
          "name": "finalized",
          "type": "bool"
        },
        {
          "internalType": "string",
          "name": "winner",
          "type": "string"
        }
      ],
      "stateMutability": "view",
      "type": "function"
    },
    {
      "inputs": [
        {
          "internalType": "uint256",
          "name": "_eventId",
          "type": "uint256"
        },
        {
          "internalType": "string",
          "name": "_winner",
          "type": "string"
        }
      ],
      "name": "finalizeEvent",
      "outputs": [],
      "stateMutability": "nonpayable",
      "type": "function"
    },
    {
      "inputs": [
        {
          "internalType": "uint256",
          "name": "_eventId",
          "type": "uint256"
        }
      ],
      "name": "getEventDetails",
      "outputs": [
        {
          "internalType": "uint256",
          "name": "id",
          "type": "uint256"
        },
        {
          "internalType": "string",
          "name": "name",
          "type": "string"
        },
        {
          "internalType": "string",
          "name": "description",
          "type": "string"
        },
        {
          "internalType": "uint256",
          "name": "startTime",
          "type": "uint256"
        },
        {
          "internalType": "uint256",
          "name": "endTime",
          "type": "uint256"
        },
        {
          "internalType": "bool",
          "name": "finalized",
          "type": "bool"
        },
        {
          "internalType": "string",
          "name": "winner",
          "type": "string"
        }
      ],
      "stateMutability": "view",
      "type": "function"
    },
    {
      "inputs": [],
      "name": "owner",
      "outputs": [
        {
          "internalType": "address",
          "name": "",
          "type": "address"
        }
      ],
      "stateMutability": "view",
      "type": "function"
    },
    {
      "inputs": [],
      "name": "renounceOwnership",
      "outputs": [],
      "stateMutability": "nonpayable",
      "type": "function"
    },
    {
      "inputs": [
        {
          "internalType": "address",
          "name": "newOwner",
          "type": "address"
        }
      ],
      "name": "transferOwnership",
      "outputs": [],
      "stateMutability": "nonpayable",
      "type": "function"
    }
  ],
  "bytecode": "0x60806040523480156200001157600080fd5b5033600073ffffffffffffffffffffffffffffffffffffffff168173ffffffffffffffffffffffffffffffffffffffff1603620000885760006040517f1e4fbdf70000000000000000000000000000000000000000000000000000000081526004016200007f9190620001a9565b60405180910390fd5b6200009981620000a060201b60201c565b50620001c6565b60008060009054906101000a900473ffffffffffffffffffffffffffffffffffffffff169050816000806101000a81548173ffffffffffffffffffffffffffffffffffffffff021916908373ffffffffffffffffffffffffffffffffffffffff1602179055508173ffffffffffffffffffffffffffffffffffffffff168173ffffffffffffffffffffffffffffffffffffffff167f8be0079c531659141344cd1fd0a4f28419497f9722a3daafe3b4186f6b6457e060405160405180910390a35050565b600073ffffffffffffffffffffffffffffffffffffffff82169050919050565b6000620001918262000164565b9050919050565b620001a38162000184565b82525050565b6000602082019050620001c0600083018462000198565b92915050565b6114bf80620001d66000396000f3fe608060405234801561001057600080fd5b50600436106100885760003560e01c80638da5cb5b1161005b5780638da5cb5b14610107578063bce062b914610125578063ec38d5a014610155578063f2fde38b1461018b57610088565b80630b7914301461008d578063715018a6146100c357806371be2e4a146100cd57806377c87c09146100eb575b600080fd5b6100a760048036038101906100a29190610aff565b6101a7565b6040516100ba9796959493929190610be6565b60405180910390f35b6100cb61038e565b005b6100d56103a2565b6040516100e29190610c6a565b60405180910390f35b61010560048036038101906101009190610dba565b6103a8565b005b61010f6104cb565b60405161011c9190610e57565b60405180910390f35b61013f600480360381019061013a9190610e72565b6104f4565b60405161014c9190610c6a565b60405180910390f35b61016f600480360381019061016a9190610aff565b610682565b6040516101829796959493929190610be6565b60405180910390f35b6101a560048036038101906101a09190610f3d565b6108dc565b005b60026020528060005260406000206000915090508060000154908060010180546101d090610f99565b80601f01602080910402602001604051908101604052809291908181526020018280546101fc90610f99565b80156102495780601f1061021e57610100808354040283529160200191610249565b820191906000526020600020905b81548152906001019060200180831161022c57829003601f168201915b50505050509080600201805461025e90610f99565b80601f016020809104026020016040519081016040528092919081815260200182805461028a90610f99565b80156102d75780601f106102ac576101008083540402835291602001916102d7565b820191906000526020600020905b8154815290600101906020018083116102ba57829003601f168201915b5050505050908060030154908060040154908060050160009054906101000a900460ff169080600601805461030b90610f99565b80601f016020809104026020016040519081016040528092919081815260200182805461033790610f99565b80156103845780601f1061035957610100808354040283529160200191610384565b820191906000526020600020905b81548152906001019060200180831161036757829003601f168201915b5050505050905087565b610396610962565b6103a060006109e9565b565b60015481565b6103b0610962565b60006002600084815260200190815260200160002090508060040154421161040d576040517f08c379a000000000000000000000000000000000000000000000000000000000815260040161040490611016565b60405180910390fd5b8060050160009054906101000a900460ff161561045f576040517f08c379a000000000000000000000000000000000000000000000000000000000815260040161045690611082565b60405180910390fd5b60018160050160006101000a81548160ff0219169083151502179055508181600601908161048d919061124e565b50827f6114f784a71fbe68b067dbeb1d4dd3f1d2ad02dc6ced831a7c4f5168fa1c7171836040516104be9190611320565b60405180910390a2505050565b60008060009054906101000a900473ffffffffffffffffffffffffffffffffffffffff16905090565b60006104fe610962565b818310610540576040517f08c379a0000000000000000000000000000000000000000000000000000000008152600401610537906113b4565b60405180910390fd5b6001600081548092919061055390611403565b91905055506040518060e001604052806001548152602001868152602001858152602001848152602001838152602001600015158152602001604051806020016040528060008152508152506002600060015481526020019081526020016000206000820151816000015560208201518160010190816105d3919061124e565b5060408201518160020190816105e9919061124e565b50606082015181600301556080820151816004015560a08201518160050160006101000a81548160ff02191690831515021790555060c0820151816006019081610633919061124e565b509050506001547f42e6867e52299b45991308391cccb9ee79466d194059ff10fc15c2d88f0ea06186858560405161066d9392919061144b565b60405180910390a26001549050949350505050565b6000606080600080600060606000600260008a81526020019081526020016000206040518060e0016040529081600082015481526020016001820180546106c890610f99565b80601f01602080910402602001604051908101604052809291908181526020018280546106f490610f99565b80156107415780601f1061071657610100808354040283529160200191610741565b820191906000526020600020905b81548152906001019060200180831161072457829003601f168201915b5050505050815260200160028201805461075a90610f99565b80601f016020809104026020016040519081016040528092919081815260200182805461078690610f99565b80156107d35780601f106107a8576101008083540402835291602001916107d3565b820191906000526020600020905b8154815290600101906020018083116107b657829003601f168201915b5050505050815260200160038201548152602001600482015481526020016005820160009054906101000a900460ff1615151515815260200160068201805461081b90610f99565b80601f016020809104026020016040519081016040528092919081815260200182805461084790610f99565b80156108945780601f1061086957610100808354040283529160200191610894565b820191906000526020600020905b81548152906001019060200180831161087757829003601f168201915b5050505050815250509050806000015181602001518260400151836060015184608001518560a001518660c00151975097509750975097509750975050919395979092949650565b6108e4610962565b600073ffffffffffffffffffffffffffffffffffffffff168173ffffffffffffffffffffffffffffffffffffffff16036109565760006040517f1e4fbdf700000000000000000000000000000000000000000000000000000000815260040161094d9190610e57565b60405180910390fd5b61095f816109e9565b50565b61096a610aad565b73ffffffffffffffffffffffffffffffffffffffff166109886104cb565b73ffffffffffffffffffffffffffffffffffffffff16146109e7576109ab610aad565b6040517f118cdaa70000000000000000000000000000000000000000000000000000000081526004016109de9190610e57565b60405180910390fd5b565b60008060009054906101000a900473ffffffffffffffffffffffffffffffffffffffff169050816000806101000a81548173ffffffffffffffffffffffffffffffffffffffff021916908373ffffffffffffffffffffffffffffffffffffffff1602179055508173ffffffffffffffffffffffffffffffffffffffff168173ffffffffffffffffffffffffffffffffffffffff167f8be0079c531659141344cd1fd0a4f28419497f9722a3daafe3b4186f6b6457e060405160405180910390a35050565b600033905090565b6000604051905090565b600080fd5b600080fd5b6000819050919050565b610adc81610ac9565b8114610ae757600080fd5b50565b600081359050610af981610ad3565b92915050565b600060208284031215610b1557610b14610abf565b5b6000610b2384828501610aea565b91505092915050565b610b3581610ac9565b82525050565b600081519050919050565b600082825260208201905092915050565b60005b83811015610b75578082015181840152602081019050610b5a565b60008484015250505050565b6000601f19601f8301169050919050565b6000610b9d82610b3b565b610ba78185610b46565b9350610bb7818560208601610b57565b610bc081610b81565b840191505092915050565b60008115159050919050565b610be081610bcb565b82525050565b600060e082019050610bfb600083018a610b2c565b8181036020830152610c0d8189610b92565b90508181036040830152610c218188610b92565b9050610c306060830187610b2c565b610c3d6080830186610b2c565b610c4a60a0830185610bd7565b81810360c0830152610c5c8184610b92565b905098975050505050505050565b6000602082019050610c7f6000830184610b2c565b92915050565b600080fd5b600080fd5b7f4e487b7100000000000000000000000000000000000000000000000000000000600052604160045260246000fd5b610cc782610b81565b810181811067ffffffffffffffff82111715610ce657610ce5610c8f565b5b80604052505050565b6000610cf9610ab5565b9050610d058282610cbe565b919050565b600067ffffffffffffffff821115610d2557610d24610c8f565b5b610d2e82610b81565b9050602081019050919050565b82818337600083830152505050565b6000610d5d610d5884610d0a565b610cef565b905082815260208101848484011115610d7957610d78610c8a565b5b610d84848285610d3b565b509392505050565b600082601f830112610da157610da0610c85565b5b8135610db1848260208601610d4a565b91505092915050565b60008060408385031215610dd157610dd0610abf565b5b6000610ddf85828601610aea565b925050602083013567ffffffffffffffff811115610e0057610dff610ac4565b5b610e0c85828601610d8c565b9150509250929050565b600073ffffffffffffffffffffffffffffffffffffffff82169050919050565b6000610e4182610e16565b9050919050565b610e5181610e36565b82525050565b6000602082019050610e6c6000830184610e48565b92915050565b60008060008060808587031215610e8c57610e8b610abf565b5b600085013567ffffffffffffffff811115610eaa57610ea9610ac4565b5b610eb687828801610d8c565b945050602085013567ffffffffffffffff811115610ed757610ed6610ac4565b5b610ee387828801610d8c565b9350506040610ef487828801610aea565b9250506060610f0587828801610aea565b91505092959194509250565b610f1a81610e36565b8114610f2557600080fd5b50565b600081359050610f3781610f11565b92915050565b600060208284031215610f5357610f52610abf565b5b6000610f6184828501610f28565b91505092915050565b7f4e487b7100000000000000000000000000000000000000000000000000000000600052602260045260246000fd5b60006002820490506001821680610fb157607f821691505b602082108103610fc457610fc3610f6a565b5b50919050565b7f566f74696e67207374696c6c20696e2070726f67726573730000000000000000600082015250565b6000611000601883610b46565b915061100b82610fca565b602082019050919050565b6000602082019050818103600083015261102f81610ff3565b9050919050565b7f4576656e7420616c72656164792066696e616c697a6564000000000000000000600082015250565b600061106c601783610b46565b915061107782611036565b602082019050919050565b6000602082019050818103600083015261109b8161105f565b9050919050565b60008190508160005260206000209050919050565b60006020601f8301049050919050565b600082821b905092915050565b6000600883026111047fffffffffffffffffffffffffffffffffffffffffffffffffffffffffffffffff826110c7565b61110e86836110c7565b95508019841693508086168417925050509392505050565b6000819050919050565b600061114b61114661114184610ac9565b611126565b610ac9565b9050919050565b6000819050919050565b61116583611130565b61117961117182611152565b8484546110d4565b825550505050565b600090565b61118e611181565b61119981848461115c565b505050565b5b818110156111bd576111b2600082611186565b60018101905061119f565b5050565b601f821115611202576111d3816110a2565b6111dc846110b7565b810160208510156111eb578190505b6111ff6111f7856110b7565b83018261119e565b50505b505050565b600082821c905092915050565b600061122560001984600802611207565b1980831691505092915050565b600061123e8383611214565b9150826002028217905092915050565b61125782610b3b565b67ffffffffffffffff8111156112705761126f610c8f565b5b61127a8254610f99565b6112858282856111c1565b600060209050601f8311600181146112b857600084156112a6578287015190505b6112b08582611232565b865550611318565b601f1984166112c6866110a2565b60005b828110156112ee578489015182556001820191506020850194506020810190506112c9565b8683101561130b5784890151611307601f891682611214565b8355505b6001600288020188555050505b505050505050565b6000602082019050818103600083015261133a8184610b92565b905092915050565b7f53746172742074696d65206d757374206265206265666f726520656e6420746960008201527f6d65000000000000000000000000000000000000000000000000000000000000602082015250565b600061139e602283610b46565b91506113a982611342565b604082019050919050565b600060208201905081810360008301526113cd81611391565b9050919050565b7f4e487b7100000000000000000000000000000000000000000000000000000000600052601160045260246000fd5b600061140e82610ac9565b91507fffffffffffffffffffffffffffffffffffffffffffffffffffffffffffffffff82036114405761143f6113d4565b5b600182019050919050565b600060608201905081810360008301526114658186610b92565b90506114746020830185610b2c565b6114816040830184610b2c565b94935050505056fea264697066735822122037337c8f7edbdf713f682323cc5f1bd98a58418ee67b4f289e7371c24a63923564736f6c63430008140033",
  "linkReferences": {},
  "deployedLinkReferences": {}
}